:020000040000fa
:08000000020c040000000000e6
:020000040000fa
:10000800f60c0000f60c0000f60c0000f60c0000e0
:10001800f60c0000f60c0000f60c0000f60c0000d0
:10002800f60c0000f60c0000f60c0000ca0c0000ec
:10003800f60c0000f60c0000f60c0000f60c0000b0
:10004800f60c0000f60c0000f60c0000f60c0000a0
:10005800f60c0000f60c0000f60c0000f60c000090
:10006800f60c0000f60c0000f60c0000da0c00009c
:10007800f60c0000f60c0000f60c0000f60c000070
:10008800f60c0000f60c0000f60c0000f60c000060
:10009800f60c0000f60c0000f60c0000f60c000050
:1000a800f60c0000f60c0000f60c0000f60c000040
:1000b800f60c0000f60c0000f60c0000f60c000030
:1000c800f60c0000f60c0000f60c0000f60c000020
:1000d800f60c0000f60c0000f60c0000f60c000010
:1000e800f60c0000f60c0000f60c0000f60c000000
:1000f800f60c0000f60c0000f60c0000f60c0000f0
:10010800f60c0000f60c0000f60c0000f60c0000df
:10011800f60c0000f60c0000f60c0000f60c0000cf
:10012800f60c0000f60c0000f60c0000f60c0000bf
:10013800f60c0000f60c0000f60c0000f60c0000af
:10014800f60c0000f60c0000f60c0000f60c00009f
:10015800f60c0000f60c0000f60c0000f60c00008f
:10016800f60c0000f60c0000f60c0000f60c00007f
:10017800f60c0000f60c0000f60c0000f60c00006f
:10018800f60c0000f60c0000f60c0000f60c00005f
:10019800f60c0000f60c0000f60c0000f60c00004f
:1001a800f60c0000f60c0000f60c0000f60c00003f
:1001b800f60c0000f60c0000f60c0000f60c00002f
:1001c800f60c0000f60c0000f60c0000f60c00001f
:1001d800f60c0000f60c0000f60c0000f60c00000f
:1001e800f60c0000f60c0000f60c0000f60c0000ff
:0801f800f60c0000f60c0000fb
:020000040000fa
:10020800f60c0000f60c0000f60c0000f60c0000de
:10021800f60c0000f60c0000f60c0000f60c0000ce
:10022800f60c0000f60c0000f60c0000ca0c0000ea
:10023800f60c0000f60c0000f60c0000f60c0000ae
:10024800f60c0000f60c0000f60c0000f60c00009e
:10025800f60c0000f60c0000f60c0000f60c00008e
:10026800f60c0000f60c0000f60c0000da0c00009a
:10027800f60c0000f60c0000f60c0000f60c00006e
:10028800f60c0000f60c0000f60c0000f60c00005e
:10029800f60c0000f60c0000f60c0000f60c00004e
:1002a800f60c0000f60c0000f60c0000f60c00003e
:1002b800f60c0000f60c0000f60c0000f60c00002e
:1002c800f60c0000f60c0000f60c0000f60c00001e
:1002d800f60c0000f60c0000f60c0000f60c00000e
:1002e800f60c0000f60c0000f60c0000f60c0000fe
:1002f800f60c0000f60c0000f60c0000f60c0000ee
:10030800f60c0000f60c0000f60c0000f60c0000dd
:10031800f60c0000f60c0000f60c0000f60c0000cd
:10032800f60c0000f60c0000f60c0000f60c0000bd
:10033800f60c0000f60c0000f60c0000f60c0000ad
:10034800f60c0000f60c0000f60c0000f60c00009d
:10035800f60c0000f60c0000f60c0000f60c00008d
:10036800f60c0000f60c0000f60c0000f60c00007d
:10037800f60c0000f60c0000f60c0000f60c00006d
:10038800f60c0000f60c0000f60c0000f60c00005d
:10039800f60c0000f60c0000f60c0000f60c00004d
:1003a800f60c0000f60c0000f60c0000f60c00003d
:1003b800f60c0000f60c0000f60c0000f60c00002d
:1003c800f60c0000f60c0000f60c0000f60c00001d
:1003d800f60c0000f60c0000f60c0000f60c00000d
:1003e800f60c0000f60c0000f60c0000f60c0000fd
:0803f800f60c0000f60c0000f9
:020000040000fa
:10180000010000002f4221000e7f22000e018800ff
:1018100000000000000020000000e0000200320094
:10182000000120002002880014000700710007005a
:101830000000e00003003a0000ea20000100200060
:10184000020037000000200001002000810f70001e
:101850000100320014000700000020000000e0003a
:10186000020032000000020000000000160e02001c
:10187000000000000040da000000fe004440a90023
:10188000000120000000e000030032000000200002
:10189000a00188004440a800000006008a1f7800cc
:1018a0008b1f7800000006009101880080047800fa
:1018b0000000eb001a003700e284440032a0b400bc
:1018c0009905ba00e284440032a0b4009906ba0037
:1018d000e284440032a0b4000006eb00476fde0053
:1018e000fd07b200636ce10003003a00ebff070064
:1018f0000000eb000a003700606ce10004003a00d1
:10190000005deb008b05e900fdff3e0004003700a1
:101910006168e100010032000086eb000b00070067
:1019200019c7ba001905ba000e04e00003003a0016
:101930000a00e000e0ff3a0000000600fe07b200e7
:101940009e0188008a047800f5ff3700395dba00ef
:101950008b05e9000c003200295dba008b05e90017
:10196000080032000c00e00003003a00e28444006a
:1019700032a0b400f5ff370019ddba008b05e9008d
:10198000faff3a008904e800e184440032a0b40080
:1019900000000600801f78000000fa008460a900a3
:1019a00010c0b30000e8b7000080fa004f007800d4
:1019b00000400600809fbe000000fa003004800056
:1019c0000030a1003004880010c0b30004e8b70064
:1019d0005116800000002f00008060001040880039
:1019e0000080fa004f00be00004006000040da0010
:0819f0000000fe0000000500ec
:020000040000fa
:1019f8003f0600005b4f0000666d00007d07000099
:101a08007f6f0000777c0000395e0000797100006c
:020000040000fa
:101a18000000fa00213a8000f08f2f00008060005b
:101a28000090a000203a88000080fa00000006001c
:101a38000000fa0061198000f0ff21000100700029
:101a48006019880000002f00401688006116800089
:101a580000002f0000806000601688000080fa00f7
:101a6800000006000000fa006116800000002f0048
:101a7800008060006016880005c8bf000080fb0079
:101a880068004000110020000008dd008000780098
:101a980060168000010070006016880005c8bf004d
:101aa8000080fb0061802000614078008080fb009e
:101ab80060168000010070006016880005c8bf002d
:101ac8000080fb008000e8003000280000806000f3
:101ad8000000e00004003d000000e900c1ff2f0005
:101ae800008070000000e8000040780005e8b700ba
:101af8000080fa00000006000400fa0010079800b1
:101b080030c0b300004f7800120037009e01fb0080
:101b18001e019000d0cc2c000010b8004308de0055
:101b28006a00b9000000780000005100c1cf280009
:101b3800e14078006080200001f079009e0090006c
:101b4800d0cc2c000008b8004308de00100798002d
:101b58001e4fe9001e4078000004e000ebff3d0046
:101b68000080fa00000006000400fa001007980040
:101b780030c0b300004f78000b0037001e00fb0098
:101b88009e009000ef806000c2cf280062c17800fc
:101b980061802000827078001e0090004400de0002
:101ba800100798001e4fe9001e4078000004e0006e
:101bb800f2ff3d000080fa00000006000000fa0075
:101bc8009460a9008460a9000421a900210880006c
:101bd800f0fc2f00008060002008880004c1a900e4
:101be80080382100100888000021ef0005e1a800d6
:101bf8009460a8000080fa00000006000000fa00c7
:101c080001038000008027000100700000038800a5
:101c1800b00480000030a000b00488000080fa0002
:101c2800000006000600fa0079ff070080ff0700a1
:101c3800e2ff0700f1ff07000000eb00caff070002
:101c48000000eb00000f78000000eb002007980070
:101c58000000eb00100798000100370000000000aa
:101c680000c8bf000004e000050032000068ef0073
:101c78007cff07001e0090000000e8001007980095
:101c88009e009000700c2000808f500005003600e8
:101c98000000eb00100798001e0fe8001e007800f7
:101ca80095ff070004c8bf000004e000ebff320006
:101cb8000468ef0011408000210798002e00900072
:101cc8000000e00002003500813e20001e8f400029
:101cd800ae00900000002400008060000000e000da
:101ce80002003a00410620001e8f4000ae0090001e
:101cf80000002200008060000000e00002003a00be
:101d08009e0078006a8f4000ae009000000021001d
:101d1800008060000000e00004003a000000eb00d2
:101d2800000f78000000eb00100798001e007800f4
:081d380071ff0700caff37002c
:020000040000fa
:101d4000060800000400000002000000ffffff0082
:101d5000ff00000000080000060000000000000076
:041d6000000000007f
:020000040000fa
:020000040001f9
:0407f8004f7f00002f
:020000040000fa
:020000040001f9
:0407fc006a1d000072
:00000001FF
