:020000040000fa
:08000000020c040000000000e6
:020000040000fa
:10000800ca0c0000ca0c0000ca0c0000ca0c000090
:10001800ca0c0000ca0c0000ca0c0000ca0c000080
:10002800ca0c0000ca0c0000ca0c0000ca0c000070
:10003800ca0c0000ca0c0000ca0c0000ca0c000060
:020000040000fa
:020000040000fa
:1018000001000000ef4121000e7f22000e01880040
:1018100000000000000020000000e0000200320094
:101820000001200020028800140007005b00070070
:101830000000e00003003a00c0f220000100200098
:10184000020037000000200001002000810f70001e
:101850000100320014000700000020000000e0003a
:10186000020032000000020000000000ac0e020086
:10187000000000000040da000000fe004440a90023
:10188000a00020000000e000030032000000200063
:10189000a00188004440a800000006008a1f7800cc
:1018a0008b1f7800000006009101880080047800fa
:1018b0000000eb001a003700e284440032a0b400bc
:1018c0009905ba00e284440032a0b4009906ba0037
:1018d000e284440032a0b4000006eb00476fde0053
:1018e000fd07b200636ce10003003a00ebff070064
:1018f0000000eb000a003700606ce10004003a00d1
:10190000005deb008b05e900fdff3e0004003700a1
:101910006168e100010032000086eb000b00070067
:1019200019c7ba001905ba000e04e00003003a0016
:101930000a00e000e0ff3a0000000600fe07b200e7
:101940009e0188008a047800f5ff3700395dba00ef
:101950008b05e9000c003200295dba008b05e90017
:10196000080032000c00e00003003a00e28444006a
:1019700032a0b400f5ff370019ddba008b05e9008d
:10198000faff3a008904e800e184440032a0b40080
:10199000000006000040da000000fe000000050024
:020000040000fa
:1019a0003f0600005b4f0000666d00007d070000f1
:0419b0007f6f000045
:020000040000fa
:1019b4000000fa00213a8000f08f2f0000806000c0
:1019c4000090a000203a88004567a900213a8000d1
:1019d400f0ff280000806000203a880045e7a90055
:1019e4000080fa00000006000000fa00611980007f
:1019f400f0ff200001007000601988006019800069
:101a040000f0a00060198800c622ef00ce22ef008b
:101a14000080fa00000006000000fa006116800051
:101a2400f00f2f00008060006016880000c8bf001f
:101a34000080fb0021802000614078000080fb00d2
:101a44006016880000c8bf000080fb0068004000ea
:101a5400110020000008dd0080007800601680007e
:101a6400010070006016880000c8bf000080fb0001
:101a74008000e80030002800008060000000e000e2
:101a840004003d000000e900c1ff2f000080700049
:101a94000000e8000040780000e8b7000080fa0089
:101aa400000006000400fa0020479800314798001f
:101ab4002e40900063406000204798002e40900024
:101ac4000080fb0021802000e140780000c8b300c2
:101ad40000cf60002e4090000080fb00be409000cc
:101ae4001ec1700021802000827078000080fa00fe
:101af400000006000200fa00004f78001147980029
:101b04001e4090000080fb0001cd28006140780059
:101b1400804078001e407800e2ff07000080fa0051
:101b2400000006000400fa00100798009e009000d0
:101b34000071220000017800110009008200d80021
:101b44008000fd00100798000040eb00004f780073
:101b5400120037009e009000a000200000017800d1
:101b6400110009008200d8008000fd008040780048
:101b740030c0b3001e405000deff07001e0190007d
:101b8400706626000090b900c288de004f90de0027
:101b940000805000100798001e4fe8001e40780097
:101ba400e34f5000ebff36000080fa00000006000f
:101bb4000400fa00100798000040eb00004f780082
:101bc4009e009000007122000001780011000900bd
:101bd4008200d8008000fd00100798009e0090004d
:101be400a000200000017800110009008200d80044
:101bf4008000fd008040780030c0b3001e405000db
:101c0400bcff07001e019000706626000090b9001a
:101c1400c288de004f90de0000805000100798005c
:101c240010c0b300004f78001d0037001e00900064
:101c34000000e00005003c0030c0b3001e4050002e
:101c44008040eb0097ff07000d0037009e009000d6
:101c5400706626000089b9004299de004f88de00d4
:101c6400000051006a01b9000200780000805000b1
:101c74008040780030c0b3001e4050009dff070034
:101c84001e019000706626000090b900c288de0034
:101c94004f90de0000805000100798001e4fe800af
:101ca4001e407800e34f5000e0ff36000080fa0049
:101cb400000006000400fa00100798009e0090003f
:101cc4000071220000017800110009008200d80090
:101cd4008000fd00100798000040eb00004f7800e2
:101ce400150037009e009000a0002000000178003d
:101cf400110009008200d8008000fd0080407800b7
:101d040030c0b3001e4050007aff07001e0190004f
:101d1400706626000090b900c288de004f90de0095
:101d240000805000100798001e0090000000e000a2
:101d3400050034001e4fe8001e407800e34f5000b9
:101d4400e8ff360001003700000000000080fa00c0
:101d5400000006000400fa0015ff070022ff070038
:101d64004116800000002f000080600040168800ab
:101d74006116800000002f0000806000601688005b
:101d84000000eb00000f7800204d200010079800a1
:101d94001e0fe8001e01780070c72a000010b8006a
:101da4004708de00e10b20000180b9000000780044
:101db400000051000000e00003003a001e00900003
:101dc4000000e800100798009e00780070012000d1
:101dd40000017800110009008280d8008000fd0015
:101de4000000e00006003a00508020009040780097
:101df40000c8b30080c0680050802000014878000b
:101e04001e009000abff070003ff0700803821008d
:0c1e14000100200001000700ddff370086
:020000040000fa
:101e2000f03fb1000180b10006003500ee0309006b
:101e300000000000403fb1000180b100fbff3d0009
:101e40001000b000203fb000020035000080090003
:081e5000000000000000060084
:020000040000fa
:101e58000208000004000000000000000008000064
:0c1e68000200000000000000000000006c
:020000040000fa
:020000040001f9
:0407f8004f7f00002f
:020000040000fa
:020000040001f9
:0407fc006a1d000072
:00000001FF
